:020000040800F2
:10000000000002207D210008E51E0008E71E000810
:10001000E91E0008EB1E0008ED1E000800000000AD
:100020000000000000000000000000006144000823
:10003000EF1E00080000000001450008A94100086B
:10004000CD210008CD210008CD210008CD210008D8
:10005000CD210008CD210008CD210008CD210008C8
:10006000CD210008CD210008CD210008CD210008B8
:10007000CD210008CD210008CD210008CD210008A8
:10008000CD210008CD210008CD210008F11E000877
:10009000011F0008111F0008211F0008CD210008C2
:1000A000CD210008CD210008CD210008CD21000878
:1000B000CD210008311F0008411F0008CD21000894
:1000C000CD210008CD210008CD210008CD21000858
:1000D000CD210008CD210008CD210008CD21000848
:1000E000CD210008CD210008CD210008CD21000838
:1000F000CD210008CD210008CD210008CD21000828
:10010000CD210008CD210008CD210008CD21000817
:10011000511F0008CD210008CD210008CD21000885
:10012000CD210008CD210008CD210008CD210008F7
:10013000CD2100080000000000000000611F000841
:10014000711F0008811F0008911F0008CD210008C1
:10015000CD210008CD210008CD210008CD210008C7
:10016000CD210008CD210008CD210008CD210008B7
:10017000CD210008CD210008000000000000000093
:08018000CD210008CD2100088B
:1001C00081F0004102E000BF83F0004330B54FEA08
:1001D00041044FEA430594EA050F08BF90EA020F75
:1001E0001FBF54EA000C55EA020C7FEA645C7FEA08
:1001F000655C00F0E2804FEA5454D4EB5555B8BF2B
:100200006D420CDD2C4480EA020281EA030382EA9B
:10021000000083EA010180EA020281EA0303362D2D
:1002200088BF30BD11F0004F4FEA01314FF4801C00
:100230004CEA113102D0404261EB410113F0004F12
:100240004FEA03334CEA133302D0524263EB4303C9
:1002500094EA050F00F0A780A4F10104D5F1200E67
:100260000DDB02FA0EFC22FA05F2801841F10001C2
:1002700003FA0EF2801843FA05F359410EE0A5F196
:1002800020050EF1200E012A03FA0EFC28BF4CF0C7
:10029000020C43FA05F3C01851EBE37101F000457D
:1002A00007D54FF0000EDCF1000C7EEB00006EEB8A
:1002B0000101B1F5801F1BD3B1F5001F0CD3490814
:1002C0005FEA30004FEA3C0C04F101044FEA44526B
:1002D00012F5800F80F09A80BCF1004F08BF5FEAF2
:1002E000500C50F1000041EB045141EA050130BDD2
:1002F0005FEA4C0C404141EB0101013C28BFB1F5E4
:10030000801FE9D291F0000F04BF01460020B1FA2E
:1003100081F308BF2033A3F10B03B3F120020CDA01
:100320000C3208DD02F1140CC2F10C0201FA0CF0DF
:1003300021FA02F10CE002F11402D8BFC2F1200C44
:1003400001FA02F120FA0CFCDCBF41EA0C019040FA
:10035000E41AA2BF01EB0451294330BD6FEA040443
:100360001F3C1CDA0C340EDC04F11404C4F120022E
:1003700020FA04F001FA02F340EA030021FA04F340
:1003800045EA030130BDC4F10C04C4F1200220FA97
:1003900002F001FA04F340EA0300294630BD21FAD5
:1003A00004F0294630BD94F0000F83F4801306BF9B
:1003B00081F480110134013D4EE77FEA645C18BF8F
:1003C0007FEA655C29D094EA050F08BF90EA020F26
:1003D00005D054EA000C04BF1946104630BD91EA1E
:1003E000030F1EBF0021002030BD5FEA545C05D121
:1003F0004000494128BF41F0004130BD14F5800460
:100400003CBF01F5801130BD01F0004545F0FE41D3
:1004100041F470014FF0000030BD7FEA645C1ABF08
:10042000194610467FEA655C1CBF0B46024650EA3F
:10043000013406BF52EA033591EA030F41F400216B
:1004400030BD00BF90F0000F04BF0021704730B5F1
:100450004FF4806404F132044FF000054FF00001C6
:1004600050E700BF90F0000F04BF0021704730B587
:100470004FF4806404F1320410F0004548BF40425C
:100480004FF000013EE700BF42004FEAE2014FEAB1
:1004900031014FEA02701FBF12F07F4393F07F4F8C
:1004A00081F06051704732F07F4208BF704793F08F
:1004B0007F4F04BF41F40021704730B54FF46074A2
:1004C00001F0004521F000411CE700BF50EA0102A5
:1004D00008BF704730B54FF000050AE050EA01024E
:1004E00008BF704730B511F0004502D5404261EBBE
:1004F00041014FF4806404F132045FEA915C3FF4FF
:10050000D8AE4FF003025FEADC0C18BF03325FEA9B
:10051000DC0C18BF033202EBDC02C2F1200300FA4C
:1005200003FC20FA02F001FA03FE40EA0E0021FA71
:1005300002F11444BDE600BF70B54FF0FF0C4CF45F
:10054000E06C1CEA11541DBF1CEA135594EA0C0F11
:1005500095EA0C0F00F0DEF82C4481EA030621EA4C
:100560004C5123EA4C5350EA013518BF52EA033587
:1005700041F4801143F4801338D0A0FB02CE4FF039
:100580000005E1FB02E506F00042E0FB03E54FF069
:100590000006E1FB03569CF0000F18BF4EF0010E61
:1005A000A4F1FF04B6F5007F64F5407404D25FEA5D
:1005B0004E0E6D4146EB060642EAC62141EA555110
:1005C0004FEAC52040EA5E504FEACE2EB4F1FD0C52
:1005D00088BFBCF5E06F1ED8BEF1004F08BF5FEAD0
:1005E000500E50F1000041EB045170BD06F0004682
:1005F00046EA010140EA020081EA0301B4EB5C042F
:10060000C2BFD4EB0C0541EA045170BD41F4801126
:100610004FF0000E013C00F3AB8014F1360FDEBF4B
:10062000002001F0004170BDC4F10004203C35DA27
:100630000C341BDC04F11404C4F1200500FA05F3AA
:1006400020FA04F001FA05F240EA020001F000424B
:1006500021F0004110EBD37021FA04F642EB0601C1
:100660005EEA430E08BF20EAD37070BDC4F10C04EB
:10067000C4F1200500FA04F320FA05F001FA04F2AF
:1006800040EA020001F0004110EBD37041F100019B
:100690005EEA430E08BF20EAD37070BDC4F12005A6
:1006A00000FA05F24EEA020E20FA04F301FA05F20E
:1006B00043EA020321FA04F001F0004121FA04F2B6
:1006C00020EA020000EBD3705EEA430E08BF20EA86
:1006D000D37070BD94F0000F0FD101F000464000C0
:1006E00041EB010111F4801F08BF013CF7D041EA42
:1006F000060195F0000F18BF704703F00046520046
:1007000043EB030313F4801F08BF013DF7D043EA16
:100710000603704794EA0C0F0CEA135518BF95EACC
:100720000C0F0CD050EA410618BF52EA4306D1D153
:1007300081EA030101F000414FF0000070BD50EA72
:10074000410606BF1046194652EA430619D094EAFC
:100750000C0F02D150EA013613D195EA0C0F05D1E6
:1007600052EA03361CBF104619460AD181EA03013A
:1007700001F0004141F0FE4141F470014FF00000F2
:1007800070BD41F0FE4141F4780170BD70B54FF08D
:10079000FF0C4CF4E06C1CEA11541DBF1CEA13550D
:1007A00094EA0C0F95EA0C0F00F0A7F8A4EB0504EF
:1007B00081EA030E52EA03354FEA013100F08880E6
:1007C0004FEA03334FF0805545EA131343EA1263AF
:1007D0004FEA022245EA111545EA10654FEA002664
:1007E0000EF000419D4208BF964244F1FD0404F51D
:1007F000407402D25B084FEA3202B61A65EB030579
:100800005B084FEA32024FF480104FF4002CB6EB35
:10081000020E75EB030E22BFB61A754640EA0C00B5
:100820005B084FEA3202B6EB020E75EB030E22BFF5
:10083000B61A754640EA5C005B084FEA3202B6EB36
:10084000020E75EB030E22BFB61A754640EA9C00F5
:100850005B084FEA3202B6EB020E75EB030E22BFC5
:10086000B61A754640EADC0055EA060E18D04FEA83
:10087000051545EA16754FEA06164FEAC30343EA23
:1008800052734FEAC2025FEA1C1CC0D111F4801FF0
:100890000BD141EA00014FF000004FF0004CB6E7E9
:1008A00011F4801F04BF01430020B4F1FD0C88BF88
:1008B000BCF5E06F3FF6AFAEB5EB030C04BFB6EB93
:1008C000020C5FEA500C50F1000041EB045170BD86
:1008D0000EF0004E4EEA113114EB5C04C2BFD4EBB3
:1008E0000C0541EA045170BD41F480114FF0000E37
:1008F000013C90E645EA060E8DE60CEA135594EAB3
:100900000C0F08BF95EA0C0F3FF43BAF94EA0C0FB5
:100910000AD150EA01347FF434AF95EA0C0F7FF42A
:1009200025AF104619462CE795EA0C0F06D152EA7E
:1009300003353FF4FDAE1046194622E750EA410662
:1009400018BF52EA43067FF4C5AE50EA41047FF473
:100950000DAF52EA43057FF4EBAE12E74FF0FF3CD8
:1009600006E000BF4FF0010C02E000BF4FF0010CA9
:100970004DF804CD4FEA410C7FEA6C5C4FEA430C22
:1009800018BF7FEA6C5C1BD001B050EA410C0CBF71
:1009900052EA430C91EA030F02BF90EA020F0020D3
:1009A000704710F1000F91EA030F58BF994208BF3A
:1009B00090422CBFD8176FEAE37040F001007047F7
:1009C0004FEA410C7FEA6C5C02D150EA013C07D14E
:1009D0004FEA430C7FEA6C5CD6D152EA033CD3D099
:1009E0005DF8040B704700BF8446104662468C4693
:1009F0001946634600E000BF01B5FFF7B7FF0028C6
:100A000048BF10F1000F01BD4DF808EDFFF7F4FFEE
:100A10000CBF012000205DF808FB00BF4DF808ED79
:100A2000FFF7EAFF34BF012000205DF808FB00BF9C
:100A30004DF808EDFFF7E0FF94BF012000205DF8BE
:100A400008FB00BF4DF808EDFFF7CEFF94BF012073
:100A500000205DF808FB00BF4DF808EDFFF7C4FF6C
:100A600034BF012000205DF808FB00BF4FEA4102BF
:100A7000B2F1E04324BFB3F5001CDCF1FE5C0DD9FC
:100A800001F0004C4FEAC0024CEA5070B2F1004F46
:100A900040EB830008BF20F00100704711F0804F49
:100AA00021D113F13872BCBF01F00040704741F40E
:100AB00080114FEA5252C2F11802C2F1200C10FA12
:100AC0000CF320FA02F018BF40F001004FEAC123F6
:100AD0004FEAD32303FA0CFC40EA0C0023FA02F39A
:100AE0004FEA4303CCE77FEA625307D150EA013370
:100AF0001EBF4FF0FE4040F44000704701F0004040
:100B000040F0FE4040F40000704700BF53B94AB9BE
:100B1000002908BF00281CBF4FF0FF314FF0FF3005
:100B200000F074B9ADF1080C6DE904CE00F006F8E0
:100B3000DDF804E0DDE9022304B070472DE9F04759
:100B4000089D04468E46002B4DD18A42944669D9B1
:100B5000B2FA82F252B101FA02F3C2F1200120FA94
:100B600001F10CFA02FC41EA030E94404FEA1C48E2
:100B7000210CBEFBF8F61FFA8CF708FB16E341EADE
:100B8000034306FB07F199420AD91CEB030306F164
:100B9000FF3080F01F81994240F21C81023E634485
:100BA0005B1AA4B2B3FBF8F008FB103344EA034429
:100BB00000FB07F7A7420AD91CEB040400F1FF333E
:100BC00080F00A81A74240F207816444023840EA7B
:100BD0000640E41B00261DB1D4400023C5E90043B4
:100BE0003146BDE8F0878B4209D9002D00F0EF8037
:100BF0000026C5E9000130463146BDE8F087B3FA6A
:100C000083F6002E4AD18B4202D3824200F2F98051
:100C1000841A61EB030301209E46002DE0D0C5E954
:100C2000004EDDE702B9FFDEB2FA82F2002A40F0A0
:100C30009280A1EB0C014FEA1C471FFA8CFE0126A3
:100C4000200CB1FBF7F307FB131140EA01410EFB47
:100C500003F0884208D91CEB010103F1FF3802D2EE
:100C6000884200F2CB804346091AA4B2B1FBF7F0E8
:100C700007FB101144EA01440EFB00FEA64508D90B
:100C80001CEB040400F1FF3102D2A64500F2BB8048
:100C90000846A4EB0E0440EA03409CE7C6F1200797
:100CA000B34022FA07FC4CEA030C20FA07F401FADD
:100CB00006F31C43F9404FEA1C4900FA06F3B1FB66
:100CC000F9F8200C1FFA8CFE09FB181140EA0141CB
:100CD00008FB0EF0884202FA06F20BD91CEB010168
:100CE00008F1FF3A80F08880884240F28580A8F1C0
:100CF00002086144091AA4B2B1FBF9F009FB101112
:100D000044EA014100FB0EFE8E4508D91CEB0101AF
:100D100000F1FF346CD28E456AD90238614440EA52
:100D20000840A0FB0294A1EB0E01A142C846A646D2
:100D300056D353D05DB1B3EB080261EB0E0101FA5B
:100D400007F722FA06F3F1401F43C5E900710026B8
:100D50003146BDE8F087C2F12003D8400CFA02FC0E
:100D600021FA03F3914001434FEA1C471FFA8CFE1E
:100D7000B3FBF7F007FB10360B0C43EA064300FB0E
:100D80000EF69E4204FA02F408D91CEB030300F1AC
:100D9000FF382FD29E422DD9023863449B1B89B263
:100DA000B3FBF7F607FB163341EA034106FB0EF3EC
:100DB0008B4208D91CEB010106F1FF3816D28B4299
:100DC00014D9023E6144C91A46EA004638E72E4665
:100DD000284605E70646E3E61846F8E64B45A9D25D
:100DE000B9EB020864EB0C0E0138A3E74646EAE7CC
:100DF000204694E74046D1E7D0467BE7023B61447A
:100E000032E7304609E76444023842E7704700BFE2
:100E1000844641EA000313F003036DD1403A41D305
:100E200051F8043B40F8043B51F8043B40F8043BC4
:100E300051F8043B40F8043B51F8043B40F8043BB4
:100E400051F8043B40F8043B51F8043B40F8043BA4
:100E500051F8043B40F8043B51F8043B40F8043B94
:100E600051F8043B40F8043B51F8043B40F8043B84
:100E700051F8043B40F8043B51F8043B40F8043B74
:100E800051F8043B40F8043B51F8043B40F8043B64
:100E900051F8043B40F8043B51F8043B40F8043B54
:100EA000403ABDD2303211D351F8043B40F8043BF4
:100EB00051F8043B40F8043B51F8043B40F8043B34
:100EC00051F8043B40F8043B103AEDD20C3205D304
:100ED00051F8043B40F8043B043AF9D2043208D0FC
:100EE000D2071CBF11F8013B00F8013B01D30B886E
:100EF00003806046704700BF082A13D38B078DD04C
:100F000010F003038AD0C3F10403D21ADB071CBF1D
:100F100011F8013B00F8013B80D331F8023B20F887
:100F2000023B7BE7043AD9D3013A11F8013B00F8C0
:100F3000013BF9D20B7803704B7843708B78837048
:100F40006046704700000000000000000000000044
:100F500001F0FF01102A2BDB10F0070F08D010F86A
:100F6000013B013A8B422DD010F0070F42B3F6D16E
:100F7000F0B441EA012141EA014122F007047FF087
:100F800000070023F0E80256083C85EA010586EADE
:100F9000010685FA47F5A3FA87F586FA47F6A5FA1A
:100FA00087F68EB9EED1F0BC01F0FF0102F0070226
:100FB00032B110F8013B013A83EA010313B1F8D1D1
:100FC0000020704701387047002D06BF35460338B2
:100FD000073815F0010F07D1013015F4807F02BFEB
:100FE000013015F4C03F0130F0BC0138704700BF3C
:100FF00000000000000000000000000000000000F1
:1010000090F800F06DE9024520F007016FF0000C48
:1010100010F0070491F820F040F049804FF00004F0
:101020006FF00700D1E9002391F840F000F10800CB
:1010300082FA4CF2A4FA8CF283FA4CF3A2FA8CF303
:101040004BBBD1E9022382FA4CF200F10800A4FA6A
:101050008CF283FA4CF3A2FA8CF3E3B9D1E90423BE
:1010600082FA4CF200F10800A4FA8CF283FA4CF3F5
:10107000A2FA8CF37BB9D1E9062301F1200182FAAF
:101080004CF200F10800A4FA8CF283FA4CF3A2FAB5
:101090008CF3002BC6D0002A04BF04301A4612BAC3
:1010A000B2FA82F2FDE8024500EBD2007047D1E9C6
:1010B000002304F00305C4F100004FEAC50514F055
:1010C000040F91F840F00CFA05F562EA05021CBF26
:1010D00063EA050362464FF00004A9E74FEA410CBA
:1010E0007FEA6C5C02D150EA013C0AD14FEA430C22
:1010F0007FEA6C5C02D152EA033C02D14FF000005F
:1011000070474FF0010070474FEA410212F500129C
:1011100015D211D56FF47873B3EB625212D94FEA3E
:10112000C12343F0004343EA505311F0004F23FA28
:1011300002F018BF404270474FF00000704750EA7D
:10114000013005D111F0004008BF6FF0004070473A
:101150004FF00000704700BF4A0011D212F5001294
:1011600011D20DD56FF47873B3EB62520ED44FEAFF
:10117000C12343F0004343EA505323FA02F070477F
:101180004FF00000704750EA013002D14FF0FF30BD
:1011900070474FF00000704738B500220023044626
:1011A0000D46FFF73BFC28B920462946BDE83840EC
:1011B00000F00AB8204605F1004100F005F8404271
:1011C00061EB410138BD00BFD0B50C4B0022064693
:1011D0000F46FFF7B1F9FFF7BFFF0446FFF732F9FB
:1011E000074B0022FFF7A8F902460B463046394666
:1011F000FEF7EAFFFFF7B0FF2146D0BD0000F03D4B
:101200000000F04108B501228021024801F0A6FD4E
:1012100008BD00BF0008024008B500228021024836
:1012200001F09CFD08BD00BF0008024008B508E0C1
:101230002F4B1B782BB3012B41D04FF4FA7004F0E5
:10124000DDFB4FF0FF312B4B186803F02BFF4FF401
:10125000FA6004F0D3FB284BD3ED007AF5EE407A28
:10126000F1EE10FAE4D14FF4FA6004F0C7FB234A20
:101270001388013313800023214A1380214A1380ED
:10128000DBE74FF4FA6004F0B9FB1F4C1F4B2360FF
:10129000FFF7B8FF4FF4FA6004F0B0FB00232360BF
:1012A000134B01221A704FF4FA6004F0A7FB0023DD
:1012B0001A4640F20641164800F09FF9BDE7124C6D
:1012C000124B23604FF47A7004F098FBFFF7A4FFF1
:1012D000002323604FF47A7004F090FB0022044B4B
:1012E0001A70134640F20741094800F086F9A4E756
:1012F000CA0900209C0B0020CC090020C80900204E
:10130000445E0020465E0020240B002093A9623F2B
:10131000680B00200000000000B585B07BE05E4C4B
:101320005E4BD3ED000A204600F0DAF95C4B83ED0A
:10133000000A5C4BD3ED000A5B4B93ED000A20469C
:1013400000F0CEF9594B83ED000A594BB3F9060072
:10135000FFF788F80022574BFFF718FAFFF786FBD4
:10136000554C564D00EE900A94ED000A284600F0C8
:10137000B7F9BDEEC00A524B10EE102A1A80514B3D
:10138000B3F90600FFF76EF800224A4BFFF7FEF9AB
:10139000FFF76CFB00EE900A444B93ED000A2846E1
:1013A00000F09EF9BDEEC00A10EE103A1AB2464B9C
:1013B0001A80D4ED006A3A4B93ED007A37EE667AE4
:1013C000424BD3ED007AB4EEE77AF1EE10FA43DD4A
:1013D00076EEA76AC4ED006A3D4BD3ED006A334B4D
:1013E00093ED007A37EE667AF4EEC77AF1EE10FAF2
:1013F0003FD577EEA67A364BC3ED007A03230293EE
:101400004FF400730193002300932D49B1F90010AC
:10141000304800F0A9F84FF0FF312F4B186803F067
:1014200041FE2E4B1B78002B8FD02D4B93ED000AE5
:10143000B5EEC00AF1EE10FA3FF771AF10EE100AE8
:10144000FFF722F812A3D3E90023FEF7BFFEFFF750
:101450000DFB00EE100A62E7B1EE676AB4EEC67AE1
:10146000F1EE10FAB8D576EEE76A134BC3ED006AD9
:10147000B2E7B1EE676AB4EEC67AF1EE10FABDD506
:1014800076EEE77A124BC3ED007AB7E7AFF3008050
:101490009A9999999999B93F040A0020E009002086
:1014A0002C0B0020E4090020240B0020300B00202E
:1014B000EC09002000004240340B00202C0A0020E0
:1014C000E8090020F8090020EA09002004000020B3
:1014D000380B0020400B0020A00B00200000002053
:1014E000CC09002000B585B00D4BB3F904500D4B6D
:1014F000B3F900400C4B1868FEF7C6FFCDE90201B6
:101500000A4B1868FEF7C0FFCDE900012A462146C4
:10151000074805F04DFA322004F070FAE4E700BF06
:10152000EC090020405E0020E0090020CC090020EA
:1015300098E7000808B54FF0FF31084B186803F032
:10154000B1FD012000F0AEF9C8220021044805F0E9
:10155000DDF9044B00221A80EDE700BFA40B002048
:10156000540A00201E0B002010B582B0BDF910E017
:101570009DF818C01CF0110F04D00C128DF800401B
:101580008DF801101CF0220F04D011128DF80210FA
:101590008DF803201CF0440F04D01A128DF804209B
:1015A0008DF805301CF0080F02D11CF0800F05D01B
:1015B0004FEA2E238DF806308DF807E008236A469F
:1015C000BDF8141000F019F802B010BD10B50446B3
:1015D00000F080FF2268536943F0020353612268E0
:1015E000536943F0100353610221204601F0CAF809
:1015F0001021204601F0C6F810BD10B588B00124B6
:10160000019402910021039104910591069301AB8D
:1016100002A900F08DFF08B010BD10B58AB011F01E
:10162000020F20D0C2F34F3402944FEA410C0CF069
:10163000060C4CEAC2020392C3F34F3200924CEA0A
:10164000C3030193CB080593C1F3800104910123E7
:1016500008930022069207930E230993694600F02F
:101660009DFE0AB010BD520100924A0002F006022F
:1016700001925B0102930392E4E700000023C36040
:1016800043610E4A82610E4A02620361C3610D4AE0
:10169000026043600C4A82600C4A4262CB604B613C
:1016A0000B4A8A610A620B61CB610A4A0A604B608D
:1016B000094B8B60094B4B62704700BF00401C46D2
:1016C00000007A46A470994200002041CDCC4C3DE8
:1016D00000001644500D4B420000A0406F12833AA8
:1016E00090ED037AD0ED097AB4EEE77AF1EE10FAD4
:1016F00008D5F1EE677AB4EEE77AF1EE10FA01DD83
:101700000023C36070EE600AC0ED030A90ED057A15
:1017100030EE877A80ED057AD0ED016A27EE267AE1
:10172000D0ED067AB1EE676AB4EEC67AF1EE10FA41
:1017300032D5C6EE267AC0ED057AD0ED007A60EE9D
:10174000A77A90ED057A66EE876A77EEA67A90ED35
:10175000027AD0ED046A70EEE66A27EE267A77EE1A
:10176000877AC0ED077A90ED087AF4EEC77AF1EE49
:1017700010FA01DD80ED077AD0ED077AB1EE477AF5
:10178000F4EEC77AF1EE10FA01D580ED077AC0EDDC
:10179000040A90ED070A7047B4EEE77AF1EE10FA0A
:1017A000CBDD87EEA67A80ED057AC6E72DE9F04F0E
:1017B00083B051EC100B57EC116B8DED002B55ECF9
:1017C000134B59EC148B11EE102A3B46FEF7FCFC30
:1017D00082468B4622462B4640464946FEF7F4FC9D
:1017E00002460B4650465946FEF7A6FE80468946FD
:1017F00032463B46DDE90001FEF7E6FC02460B46B9
:1018000040464946FEF7C2FF22462B46FEF7DEFC65
:1018100041EC100B03B0BDE8F08F000010B586B0AE
:1018200000231A4603E021290AD00133DBB2C72B7B
:1018300020D81B49C95C3D29F5D15A1CD2B2F2E728
:10184000013BDBB21649895C2D2915D0002400210B
:10185000934215D3122913D81148805C80B101F14D
:10186000010C1831694401F8140C0132D2B25FFA4C
:101870008CF1EDE70023E5E70132D2B20124E6E77F
:1018800001F118036B44002103F8141C01A806F0B1
:101890008FF90CB906B010BDB1EE400AFAE700BFEF
:1018A000540A002010B50446FFF7B8FF012C00D001
:1018B00010BD2E4B1B78502B1CD0492B22D0442B13
:1018C00028D0502B2ED0492B34D0442B3AD0532B38
:1018D00040D0502BECD1254B5B786F2BE8D1234BBC
:1018E0009B78732BE4D1224B1968224A116083ED57
:1018F000000ADDE71D4A5278312ADED11E4B83ED06
:10190000000AD5E7194A5278312AD8D11A4B83ED0B
:10191000010ACDE7154A5278312AD2D1164B83ED10
:10192000020AC5E7114A5278322ACCD1134B83ED13
:10193000000ABDE70D4A5278322AC6D10F4B83ED1B
:10194000010AB5E7094A5278322AC0D10B4B83ED20
:10195000020AADE7054A5278702ABAD1034A927852
:10196000652AB6D1064B83ED000AA1E7540A002090
:10197000200B0020280B0020040A00202C0A002045
:101980002C0B002008B50D480D4B0360032343606A
:1019900000238360C3604FF4102202614FF40012F1
:1019A0004261037643768376C3760377437700F00C
:1019B0004FFC00B908BD00F0A7F9FBE7400B002081
:1019C0000064004008B50D480D4B036003234360DD
:1019D00000238360C3604FF4102202614FF40012B1
:1019E0004261037643768376C3760377437700F0CC
:1019F0002FFC00B908BD00F087F9FBE7680B002059
:101A00000068004010B58AB0002305930693079341
:101A1000089309930368574A934204D0564A934265
:101A20004ED00AB010BD554A136801331360012B24
:101A300039D000240194524B1A6B42F001021A6310
:101A40001B6B03F001030193019B4FF4C0530593FB
:101A500002230693032308930923099305A9494800
:101A600001F08AF822460521132000F0E1FF13203F
:101A700001F016F822460521142000F0D9FF1420A9
:101A800001F00EF822460521152000F0D1FF1520A7
:101A900001F006F822460521162000F0C9FF1620A5
:101AA00000F0FEFFBDE700230093354B1A6C42F0B7
:101AB00000721A641B6C03F000730093009BB8E77C
:101AC000002302932E4B1A6C42F080621A641B6C46
:101AD00003F080630293029B284A1368013313606A
:101AE000012B39D000240494254B1A6B42F00202DA
:101AF0001A631B6B03F002030493049B4FF44053DF
:101B0000059302230693032308930923099305A948
:101B10001D4801F031F8224605213F2000F088FFE2
:101B20003F2000F0BDFF22460521402000F080FF4D
:101B3000402000F0B5FF22460521412000F078FF4B
:101B4000412000F0ADFF22460521422000F070FF49
:101B5000422000F0A5FF64E700230393084B1A6CB2
:101B600042F000721A641B6C03F000730393039B32
:101B7000B8E700BF00640040006800403C0B002054
:101B800000380240000002400004024008B5012075
:101B900002F0A3FBFBE7000000B583B003220021A5
:101BA000012003F028F8224B1860032200210120B5
:101BB00003F021F81F4B186003220021012003F0DD
:101BC0001AF81D4B18601D4A00211D4802F026FB23
:101BD0001C4B18601C4B0193182300930023802298
:101BE0001A491B4803F069FD1A4B0193192300930E
:101BF000002380221849194803F05FFD184B019318
:101C00001B23009300234FF480621649164803F00B
:101C100054FD164B01931A23009300234FF4807256
:101C20001349144803F049FD03B05DF804FB00BFFD
:101C3000A00B0020A40B00209C0B0020F8E700085C
:101C40008D1B0008900B0020AC0B0020B0E70008B3
:101C5000E5140008A80B0020C0E7000835150008AF
:101C6000980B0020D0E7000819130008940B0020FF
:101C7000DCE700082D12000830B58BB00024059475
:101C8000069407940894099401941D4B1A6B42F032
:101C900080021A631A6B02F080020192019A029488
:101CA0001A6B42F001021A631A6B02F001020292EF
:101CB000029A03941A6B42F002021A631A6B02F042
:101CC00002020392039A04941A6B42F004021A630C
:101CD0001B6B03F004030493049B0A4D2246C021AE
:101CE000284601F03BF8C023059301230693022305
:101CF0000793089405A9284600F03EFF0BB030BDBD
:101D0000003802400008024072B6FEE700B595B008
:101D10003022002108A804F0F9FD00230393049366
:101D20000593069307930193204A116C41F080516B
:101D30001164126C02F080520192019A02931C4BC2
:101D40001A6842F480421A601B6803F480430293CD
:101D5000029B012308934FF48033099302220E92D1
:101D60004FF480030F9304231093A8211191129232
:101D7000139308A801F002F898B90F2303930223E4
:101D80000493002305934FF4A05306934FF480531C
:101D90000793052103A801F057FA20B915B05DF8A3
:101DA00004FBFFF7B1FFFFF7AFFF00BF00380240B1
:101DB0000070004008B500F00BFAFFF7A7FF04F031
:101DC000D5FCFFF759FFFFF7DDFD00F027F9FFF71E
:101DD000F9FD00F07BF904F0C9FC02F0F1F9FFF71E
:101DE000DBFE02F0FFF98021034800F0BDFF4FF455
:101DF0007A7000F019FAF6E70008024000B583B0E7
:101E0000002200920D4B596C41F480415964596C89
:101E100001F48041009100990192196C41F08051C8
:101E200019641B6C03F080530193019B0F216FF029
:101E3000010000F0FDFD03B05DF804FB0038024036
:101E400030B589B0044600230193214B1A6C42F04F
:101E500004021A641B6C03F004030193019B02A9A2
:101E600003A801F0C7FA069BCBB901F0A3FA034619
:101E70001848A0FB03239B0C013B1748174A02603C
:101E800040F2E732C26043600023036183608361F4
:101E900001F062FC054630B1284609B030BD01F0C2
:101EA00089FA4300E4E70C4801F0F2FA05460028FD
:101EB000F2D11E2000F0F4FD0F2C01D90125EBE733
:101EC000002221461E2000F0B3FD054B1C60E3E715
:101ED0000038024083DE1B43B00B002000080040A6
:101EE00010000020FEE7FEE7FEE7FEE7FEE7704792
:101EF00008B5024800F064FC08BD00BF400B00209C
:101F000008B5024800F05CFC08BD00BF400B002093
:101F100008B5024800F054FC08BD00BF400B00208B
:101F200008B5024800F04CFC08BD00BF400B002083
:101F300008B5024801F0F4FA08BD00BFFC0B002010
:101F400008B5024801F0ECFA08BD00BFB00B002054
:101F500008B5024801F0B6FF08BD00BF440C0020E0
:101F600008B5024800F02CFC08BD00BF680B00203B
:101F700008B5024800F024FC08BD00BF680B002033
:101F800008B5024800F01CFC08BD00BF680B00202B
:101F900008B5024800F014FC08BD00BF680B002023
:101FA0000120704708B504F087FC162303604FF04A
:101FB000FF3008BD08B54FF0FF31FFF7F3FFFEE734
:101FC00010B503460C4A0D490D48006840B10C4855
:101FD00000680344521A934206D8094A136010BDA0
:101FE0000748084C0460F2E704F066FC0C23036029
:101FF0004FF0FF30F3E700BF0000022000040000B4
:10200000F80B0020985E0020034AD2F8883043F491
:102010007003C2F88830704700ED00E000B587B06B
:1020200000230293039304930593009301931548AF
:10203000154A0260A7224260836040F2E732C26024
:1020400003618023836101F087FB90B94FF48053D3
:10205000029302A90B4801F0B8FB68B90023009372
:1020600001936946074801F02FFC40B907B05DF8BD
:1020700004FBFFF749FEE9E7FFF746FEEEE7FFF74F
:1020800043FEF3E7FC0B00200004004002680E4B07
:102090009A4200D0704700B583B00022019203F548
:1020A0000D33196C41F0020119641B6C03F002033B
:1020B0000193019B05211D2000F0BAFC1D2000F0BA
:1020C000EFFC03B05DF804FB0004004008B50A48CB
:1020D0000A4B03604FF4E133436000238360C36025
:1020E00003610C2242618361C36101F060FD00B9AC
:1020F00008BDFFF709FEFBE7440C0020004C004040
:1021000010B588B0002303930493059306930793B7
:102110000268184B9A4201D008B010BD0024019407
:1021200003F5F6331A6C42F400221A641A6C02F4B6
:1021300000220192019A02941A6B42F001021A6382
:102140001B6B03F001030293029B03230393022200
:10215000049206930823079303A9074800F00CFD97
:1021600022460521342000F063FC342000F098FC66
:10217000D2E700BF004C004000000240DFF834D03E
:10218000FFF742FF0C480D490D4A002302E0D458E6
:10219000C4500433C4188C42F9D30A4A0A4C0023B1
:1021A00001E013600432A242FBD304F08BFBFFF783
:1021B00001FE70470000022000000020C809002036
:1021C00080EE0008C8090020945E0020FEE70000B1
:1021D00008B50B4B1A6842F400721A601A6842F490
:1021E00080621A601A6842F480721A60032000F05C
:1021F0000DFC0F20FFF724FEFFF700FE002008BDB6
:10220000003C0240034A1168034B1B780B441360E7
:10221000704700BF8C0C00200C000020014B186898
:10222000704700BF8C0C002038B50446FFF7F6FF5E
:102230000546B4F1FF3F02D0044B1B781C44FFF766
:10224000EDFF401BA042FAD338BD00BF0C000020B8
:10225000002800F0A18038B5044690F82030D3B1B2
:102260002268136843F001031360FFF7D7FF0546A8
:1022700023685A6812F0010F10D1FFF7CFFF401BFF
:102280000A28F5D9636A43F400336362052384F8AE
:102290002030012038BDFFF7B5FBE1E71A6822F0D6
:1022A00002021A60FFF7BAFF054623685A6812F067
:1022B000020F0DD0FFF7B2FF401B0A28F5D9636A61
:1022C00043F400336362052384F820300120E1E702
:1022D000227E012A3DD01A6822F080021A60637EB5
:1022E000012B3BD02268136823F040031360A37EC8
:1022F000012B39D02268136823F020031360E37E9A
:10230000012B37D02268136843F010031360237F3A
:10231000012B35D02268136823F008031360637F14
:10232000012B33D02268136823F004031360A368E1
:10233000E268134322691343626913436268013AF6
:1023400021681343CB6100206062012384F82030B0
:10235000A0E71A6842F080021A60C0E7226813689A
:1023600043F040031360C2E72268136843F0200380
:102370001360C4E72268136823F010031360C6E7F4
:102380002268136843F008031360C8E722681368E3
:1023900043F004031360CAE70120704790F820302F
:1023A000013BDBB2012B05D9436A43F4802343622E
:1023B0000120704730B5464BD3F8002242F00102AD
:1023C000C3F80022D3F8002222F47C52C3F8002282
:1023D000D3F80022486A42EA0022C3F800224A6980
:1023E00002F01F02012000FA02F2D3F81C026FEA89
:1023F000020C20EA0200C3F81C02CB69C3B9344BBB
:10240000D3F80C020CEA0000C3F80C028C8848696F
:10241000CD6844EA0544483043F830408C68088869
:1024200040EA04404C6904F1480E03EBCE035860C7
:10243000CB69012B1ED08B69002B33D12448D0F8F7
:1024400004320CEA0303C0F804320B698BBB20484A
:10245000D0F814320CEA0303C0F814320B6A012BD3
:102460002ED01B4AD2F8003223F00103C2F800320A
:10247000002030BD164BD3F80C021043C3F80C02F9
:102480008C8848690D6844EA0544483043F8304078
:1024900088894C698D6840EA0540483403EBC403E1
:1024A0005860C8E70A48D0F804321343C0F8043231
:1024B000CBE70748D0F814321343C0F81432CDE705
:1024C0000349D1F81C321A43C1F81C22C9E700BFE6
:1024D0000064004070B5044690F82050EDB2012D24
:1024E00006D0436A43F4002343620125284670BDA9
:1024F000022380F820300268136823F00103136080
:10250000FFF78CFE064623685B6813F0010F0CD0C2
:10251000FFF784FE831B0A2BF5D9636A43F400336B
:102520006362052384F82030E0E700256562DDE77B
:1025300030B590F820C00468A4680CF1FF3C5FFA45
:102540008CFCBCF1010F62D814F0E05F59D0C4F3E9
:10255000016C012404FA0CF41C608B68002B3DD143
:102560000D68CB68046843EA45550CF118031B015C
:10257000E55003680C690CF1180E03EB0E135C6058
:102580000B7D012B35D0D17993791B0443EA01638C
:10259000517943EA012314790168234301EB0C11BB
:1025A000C1F88C31D17893781B0443EA01635178E8
:1025B00043EA0123117802680B4302EB0C12C2F8C4
:1025C000883102680CF1180C4FEA0C1C52F80C30E0
:1025D00043F0010342F80C3000201DE04C6843EA50
:1025E000C403CC6823430CF11804240105682B5163
:1025F000BFE7036803EB0E13596841F4807159601B
:10260000C1E7436A43F400134362012004E0436AD4
:1026100043F480234362012030BD90F820C00CF1C8
:10262000FF3C5FFA8CFCBCF1010F00F2A58030B4D6
:1026300051B90468E46814F0030F10D1436A43F4FD
:102640000013436201207EE00468246914F0030F44
:1026500005D1436A43F400134362012073E0056827
:1026600001F11B0424012C5904F004049460002C93
:102670006BD1056801F11B0424012C59640D146011
:10268000046801F11B0C4FEA0C1C54F80C4004F0D8
:102690000204D4600468A444DCF8045015F0080F68
:1026A0005BD008241461056801F11B0C05EB0C15C7
:1026B0006D68C5F307259561046804EB0C14646824
:1026C000240C5461026802EB0112D2F8B8211A708E
:1026D000026802EB0112D2F8B821C2F307225A7045
:1026E000026802EB0112D2F8B821C2F307429A70D5
:1026F000026802EB0112D2F8B821120EDA700268F9
:1027000002EB0112D2F8BC211A71026802EB01122D
:10271000D2F8BC21C2F307225A71026802EB0112FF
:10272000D2F8BC21C2F307429A71026802EB01128F
:10273000D2F8BC21120EDA71C1B90268D36843F035
:102740002003D360002030BC7047056801F11B04F2
:1027500024012C59E408546092E701F11B0504EBB5
:102760000514646804F00F0414619CE7026813699F
:1027700043F020031361E5E7436A43F48023436297
:102780000120704790F82030013BDBB2012B05D9C6
:10279000436A43F48023436201207047026853690F
:1027A0001943516100207047704770477047704768
:1027B0007047704770477047704770477047704761
:1027C0002DE9F84F054603685C69D3F804809F68DB
:1027D000D3F80CB0D3F810A0D3F8189014F0010679
:1027E0003BD017F0010616D001229A6017F0020FB5
:1027F00008D117F0040F0CD117F0080606D04FF4DB
:10280000805608E0FFF7D0FF002604E0FFF7CFFF77
:1028100001E04FF4006617F4807F0DD02B684FF471
:1028200080729A6017F4007F40F0868017F4806F02
:1028300000F0868046F4005617F4803F0DD02B68D8
:102840004FF480329A6017F4003F40F0838017F411
:10285000802F00F0838046F4004614F0080F07D064
:102860001BF0100F04D046F400762B681022DA60BB
:1028700014F0040F02D01BF0080F79D114F0020FEE
:1028800004D02B68DB6813F0030F78D114F0400FED
:1028900007D01AF0100F04D046F480662B6810227F
:1028A0001A6114F0200F02D01AF0080F6BD114F047
:1028B000100F04D02B681B6913F0030F6AD114F4B6
:1028C000003F02D018F0100F68D114F4803F02D0FE
:1028D00018F0080F69D114F4004F7AD018F0040FE3
:1028E00074D014F4807F04D019F0010F01D046F0A9
:1028F000010614F4007F04D019F0020F01D046F055
:10290000020614F4806F04D019F0040F01D046F0D1
:10291000040614F4006F59D019F0700956D0B9F1BB
:10292000400F65D058D8B9F1200F5ED0B9F1300F03
:1029300042D146F0200644E02846FFF736FF7BE709
:1029400017F4006F02D046F4804675E72846FFF77B
:102950002FFF71E72846FFF729FF7EE717F4002FC6
:1029600002D046F4803678E72846FFF722FF74E766
:102970002B680822DA602846FFF71CFF7EE728460E
:1029800003F0ACFC82E72B6808221A612846FFF7A7
:1029900013FF8CE72846FFF70EFF90E72B68102205
:1029A0005A602846FFF709FF8FE72B6808225A6014
:1029B0002846FFF703FF8EE7B9F1100F01D146F06B
:1029C00008062A68936923F0700393612B68042238
:1029D0005A609EB9BDE8F88FB9F1500F0BD0B9F12C
:1029E000600FEED146F48076EBE746F01006E8E79C
:1029F00046F04006E5E746F08006E2E76B6A1E43D4
:102A00006E622846FFF7DBFEE4E70000074AD36862
:102A100023F4E0631B041B0C000200F4E06003439A
:102A200043F0BF6343F40033D360704700ED00E030
:102A300000B5194BDB68C3F30223C3F1070CBCF1EB
:102A4000040F28BF4FF0040C03F1040EBEF1060F73
:102A500018D9033B4FF0FF3E0EFA0CFC21EA0C01A3
:102A600099400EFA03F322EA0303194300280BDB13
:102A70000901C9B200F1604000F5614080F800131F
:102A80005DF804FB0023E5E700F00F000901C9B27F
:102A9000024B1954F4E700BF00ED00E014ED00E034
:102AA000002807DB00F01F02400901239340024A7F
:102AB00042F82030704700BF00E100E070B50446E6
:102AC000866DFFF7ABFB94F83530DBB2022B06D0F6
:102AD00080236365002384F83430012070BD0546EF
:102AE0002268136823F0160313602268536923F0E9
:102AF00080035361236CE3B12268136823F0080359
:102B000013602268136823F00103136023681B68B5
:102B100013F0010F11D0FFF781FB431B052BF5D9F3
:102B200020236365032084F83500002384F83430C3
:102B3000D4E7A36C002BDFD1E3E7E26D3F239340A2
:102B4000B360012384F83530002084F83400C5E7F1
:102B500090F83530DBB2022B03D08023436501208F
:102B60007047052380F835300268136823F00103AD
:102B7000136000207047000000230F2B00F2E48058
:102B800070B582B060E085685E000324B44025EA39
:102B90000405CC68B4402C438460456825EA0205EE
:102BA0004C68C4F300129A402A4342605AE0DC08A1
:102BB000083450F8246003F0070295000F22AA4061
:102BC00026EA020E0A69AA4042EA0E0240F82420D0
:102BD0005CE0072200E0002202FA0EF22A430234EF
:102BE0005A4D45F824205A4A94686FEA0C0224EAA8
:102BF0000C054E6816F4801F01D04CEA0405544CB5
:102C0000A560E46802EA04054E6816F4001F01D0CE
:102C10004CEA04054E4CE560646802EA04054E681F
:102C200016F4003F01D04CEA0405494C6560246865
:102C300022404D6815F4803F01D04CEA0402444C18
:102C4000226001330F2B7DD801229A400C6804EAE0
:102C5000020C32EA0404F4D14C6804F00304013C91
:102C6000012C90D94A6802F00302032A09D0C468F3
:102C70005D000322AA4024EA02048A68AA40224393
:102C8000C2604A6802F00302022A90D004684FEA48
:102C9000430E032202FA0EF224EA02044A6802F00A
:102CA000030202FA0EF2224302604A6812F4403F25
:102CB000C7D000220192274A546C44F480445464E3
:102CC000526C02F480420192019A9C08A51C1F4A92
:102CD00052F8255003F003024FEA820E0F2202FA47
:102CE0000EF225EA02051C4A90423FF474AF02F549
:102CF000806290421AD002F58062904218D002F5AC
:102D00008062904216D002F58062904214D002F5A3
:102D10008062904212D002F58062904210D002F59B
:102D2000806290423FF455AF082255E7012253E7F5
:102D3000022251E703224FE704224DE705224BE729
:102D4000062249E702B070BD704700BF003801405D
:102D5000003C014000380240000002400AB181619D
:102D60007047090481617047436901EA030221EA5F
:102D7000030141EA0241816170470000002800F030
:102D8000E08170B582B00446036813F0010F3BD0B8
:102D90009F4B9B6803F00C03042B2CD09C4B9B682F
:102DA00003F00C03082B21D06368B3F5803F4FD0AC
:102DB000B3F5A02F52D0964B1A6822F480321A60D5
:102DC0001A6822F480221A606368002B50D0FFF743
:102DD00025FA05468E4B1B6813F4003F14D1FFF70C
:102DE0001DFA401B6428F5D90320B1E1884B5B68CC
:102DF00013F4800FD8D0864B1B6813F4003F03D028
:102E00006368002B00F09F81236813F0020F54D0F9
:102E10007F4B9B6813F00C0F3ED07D4B9B6803F0FB
:102E20000C03082B33D0E368002B68D0794B0122C8
:102E30001A60FFF7F3F90546754B1B6813F0020F94
:102E400054D1FFF7EBF9401B0228F5D903207FE1AD
:102E50006F4A136843F480331360B5E76C4B1A680C
:102E600042F480221A601A6842F480321A60ABE79A
:102E7000FFF7D4F90546664B1B6813F4003FC3D037
:102E8000FFF7CCF9401B6428F5D9032060E1604BC3
:102E90005B6813F4800FC6D15D4B1B6813F0020F03
:102EA00003D0E368012B40F05081594A136823F0A6
:102EB000F803216943EAC1031360236813F0080F84
:102EC00042D063696BB3534B0122C3F8802EFFF7E6
:102ED000A5F905464E4B5B6F13F0020F34D1FFF797
:102EE0009DF9401B0228F5D9032031E1484A1368B7
:102EF00023F0F803216943EAC1031360DDE7454B82
:102F000000221A60FFF78AF90546414B1B6813F04F
:102F1000020FD2D0FFF782F9401B0228F5D9032017
:102F200016E13C4B0022C3F8802EFFF777F90546E7
:102F3000374B5B6F13F0020F06D0FFF76FF9401BA2
:102F40000228F5D9032003E1236813F0040F77D09A
:102F50002F4B1B6C13F0805F33D1002301932C4B5C
:102F60001A6C42F080521A641B6C03F08053019378
:102F7000019B0125284B1B6813F4807F23D0A36895
:102F8000012B34D0052B38D0214B1A6F22F00102CF
:102F90001A671A6F22F004021A67A368002B3DD04B
:102FA000FFF73CF906461A4B1B6F13F0020F46D190
:102FB000FFF734F9801B41F288339842F3D903209C
:102FC000C6E00025D6E7144A136843F48073136003
:102FD000FFF724F90646104B1B6813F4807FCED10F
:102FE000FFF71CF9801B0228F5D90320B0E0084A3E
:102FF000136F43F001031367CFE7054B1A6F42F0DD
:1030000004021A671A6F42F001021A67C5E700BF8F
:10301000003802400000474200700040FFF7FEF811
:103020000646524B1B6F13F0020F08D0FFF7F6F85D
:10303000801B41F288339842F3D9032088E0EDB930
:10304000A369002B00F08380484A926802F00C02CA
:10305000082A51D0022B17D0454B00221A66FFF7E1
:10306000DDF80446414B1B6813F0007F42D0FFF7A8
:10307000D5F8001B0228F5D9032069E03B4A136C00
:1030800023F080531364DBE7394B00221A66FFF705
:10309000C5F80546354B1B6813F0007F06D0FFF7D7
:1030A000BDF8401B0228F5D9032051E0E369226AEC
:1030B0001343626A43EA8213A26A5208013A43EA5E
:1030C0000243E26A43EA0263284A5360284B012222
:1030D0001A66FFF7A3F80446244B1B6813F0007F21
:1030E00006D1FFF79BF8001B0228F5D903202FE03B
:1030F00000202DE000202BE0012B2BD01B4B5B6828
:1031000003F48001E269914226D103F03F02216A73
:103110008A4223D1616A47F6C0721A40B2EB811F1E
:103120001ED103F44031A26A5208013AB1EB024FBA
:1031300018D103F07063E26AB3EB026F14D1002080
:1031400006E001207047012002E0012000E000209D
:1031500002B070BD0120FBE70120F9E70120F7E78D
:103160000120F5E70120F3E70120F1E700380240F4
:103170000000474208B5314B9B6803F00C03042B59
:1031800057D0082B57D12D4B5A6802F03F025B688D
:1031900013F4800F2AD0294B5968C1F3881C4FEAD9
:1031A0004C11B1EB0C006EEB0E0E4FEA8E1343EA9E
:1031B00090638101091A63EB0E03DB0043EA51734C
:1031C000C90011EB0C0C43F10003590200234FEA34
:1031D0004C2041EADC51FDF799FC184B5B68C3F3C6
:1031E000014301335B00B0FBF3F025E0134B59685A
:1031F000C1F3881C4FEA4C11B1EB0C006EEB0E0EC4
:103200004FEA8E1343EA90638101091A63EB0E03C0
:10321000DB0043EA5173C90011EB0C0C43F10003CE
:10322000990200234FEA8C2041EA9C51FDF76EFC85
:10323000D3E7034800E0034808BD00BF0038024060
:1032400000127A000024F400002800F09B8070B582
:103250000D4604464F4B1B6803F007038B4208D210
:10326000CBB24C4A1370136803F007038B4240F053
:103270008B80236813F0020F17D013F0040F04D0D3
:10328000454A936843F4E0539360236813F0080FB2
:1032900004D0414A936843F4604393603E4A936884
:1032A00023F0F003A1680B439360236813F0010F30
:1032B00032D06368012B21D09A1E012A25D9364AC3
:1032C000126812F0020F61D033498A6822F00302BB
:1032D00013438B60FEF7A2FF06462F4B9B6803F05B
:1032E0000C036268B3EB820F16D0FEF797FF801BCA
:1032F00041F288339842F0D9032042E0264A12680E
:1033000012F4003FE0D101203BE0234A126812F0A2
:10331000007FD9D1012034E01E4B1B6803F0070366
:10332000AB4207D9EAB21B4B1A701B6803F00703C4
:10333000AB422DD1236813F0040F06D0164A9368D0
:1033400023F4E053E1680B439360236813F0080F04
:1033500007D0114A936823F46043216943EAC1030B
:103360009360FFF707FF0C4B9B68C3F303130B4AF3
:10337000D35CD8400A4B18600A4B1868FEF760FD12
:10338000002070BD012070470120FAE70120F8E716
:103390000120F6E7003C0240003802401CE800082B
:1033A0000800002010000020014B1868704700BF83
:1033B0000800002008B5FFF7F7FF044B9B68C3F334
:1033C0008223034AD35CD84008BD00BF00380240C6
:1033D0002CE8000808B5FFF7E7FF044B9B68C3F330
:1033E0004233034AD35CD84008BD00BF00380240D6
:1033F0002CE800080F2303600B4B9A6802F00302CD
:1034000042609A6802F0F00282609A6802F4E05228
:10341000C2609B68DB0803F4E0530361034B1B6845
:1034200003F007030B60704700380240003C024085
:1034300010B4036A046A24F001040462846924F06D
:10344000F00C4CEA021223F00A030B438261036280
:103450005DF8044B704710B4036A046A24F010044A
:103460000462846924F4704C4CEA023223F0A00315
:1034700043EA0113826103625DF8044B704783687D
:1034800023F070030B4343F0070383607047000091
:1034900090F83D30DBB2012B37D1022380F83D306C
:1034A0000268D36843F00103D3600368194A93426A
:1034B00020D0B3F1804F1DD0A2F57C42934219D0A9
:1034C00002F58062934215D002F58062934211D0DA
:1034D00002F5784293420DD002F57052934209D022
:1034E000A2F59432934205D01A6842F001021A60A4
:1034F000002070479A6802F00702062A07D01A686F
:1035000042F001021A60002070470120704700203D
:10351000704700BF00000140704770477047704718
:1035200070B504460368DE681D6915F0020F10D0FF
:1035300016F0020F0DD06FF002021A61012303771B
:1035400003689B6913F0030F5ED0FFF7E6FF0023CB
:10355000237715F0040F12D016F0040F0FD0236854
:103560006FF004021A610223237723689B6913F426
:10357000407F4FD02046FFF7D0FF0023237715F080
:10358000080F12D016F0080F0FD023686FF0080252
:103590001A61042323772368DB6913F0030F40D0FB
:1035A0002046FFF7BAFF0023237715F0100F12D043
:1035B00016F0100F0FD023686FF010021A61082365
:1035C00023772368DB6913F4407F31D02046FFF76F
:1035D000A4FF0023237715F0010F02D016F0010F8E
:1035E0002DD115F0800F02D016F0800F2FD115F0DD
:1035F000400F02D016F0400F31D115F0200F02D04D
:1036000016F0200F33D170BDFFF786FF2046FFF77D
:1036100085FF9CE72046FFF77FFF2046FFF77EFFF0
:10362000ABE72046FFF778FF2046FFF777FFBAE7C2
:103630002046FFF771FF2046FFF770FFC9E72368B8
:103640006FF001021A61204602F04EFFC9E72368BD
:103650006FF080021A61204600F07DF9C7E7236809
:103660006FF040021A612046FFF759FFC5E7236853
:103670006FF020021A61204600F06CF9C3E70000E9
:103680000368344A904212D0B0F1804F0FD0A2F5B7
:103690007C4290420BD002F58062904207D002F546
:1036A0008062904203D002F57842904203D123F029
:1036B00070034A681343274A90422AD0B0F1804FE2
:1036C00027D0A2F57C42904223D002F5806290423E
:1036D0001FD002F5806290421BD002F578429042E2
:1036E00017D002F57052904213D002F580629042DA
:1036F0000FD002F5806290420BD0A2F59832904232
:1037000007D002F58062904203D002F580629042B9
:1037100003D123F44073CA68134323F080034A693A
:10372000134303608B68C3620B688362094B984242
:1037300003D003F58063984201D10B690363012331
:103740004361036913F0010F03D0036923F0010300
:10375000036170470000014040B310B5044690F883
:103760003D30F3B1022384F83D30214651F8040B7B
:10377000FFF786FF012384F8463084F83E3084F852
:103780003F3084F8403084F8413084F8423084F887
:10379000433084F8443084F8453084F83D300020CC
:1037A00010BD80F83C30FEF771FCDBE7012070476C
:1037B00010B4846824F47F4C42EA03220A4342EAAC
:1037C0000C0282605DF8044B704790F83C30012B8E
:1037D00078D010B50446012380F83C30022380F8ED
:1037E0003D300268936823F47F4323F077039360AE
:1037F0000B68602B4CD029D8402B54D00CD9502BBF
:1038000022D1CA6849680068FFF712FE502120687B
:10381000FFF735FE002005E0202B0DD009D9302B15
:103820000AD00120012384F83D30002384F83C3085
:1038300010BD0BB1102B05D119462068FFF71FFEF4
:103840000020EFE70120EDE70120EBE7B3F5805F13
:1038500034D0B3F5005F0CD1CB684A688968006842
:10386000FFF7A6FF2268936843F48043936000202B
:10387000D8E7702B24D1CB684A6889680068FFF7C5
:1038800097FF2268936843F0770393600020C9E7AD
:10389000CA6849680068FFF7DEFD60212068FFF70D
:1038A000EEFD0020BEE7CA6849680068FFF7C0FD6A
:1038B00040212068FFF7E3FD0020B3E70020B1E7D7
:1038C0000120AFE70220704790F83C30012B3DD03B
:1038D00010B4012380F83C30022380F83D300368A7
:1038E0005A689C6822F0700C0A6842EA0C025A601E
:1038F0000368174A93421AD0B3F1804F17D0A2F54C
:103900007C42934213D002F5806293420FD002F5BD
:10391000806293420BD002F57842934207D002F5C1
:103920007052934203D0A2F59432934204D124F012
:1039300080044A6814439C60012380F83D300023D2
:1039400080F83C3018465DF8044B70470220704701
:103950000000014070477047026802F10C0353E811
:10396000003F23F490730C3242E800310029F3D178
:10397000026802F1140353E8003F23F001031432FC
:1039800042E800310029F3D1036B012B05D020233D
:1039900080F84230002303637047026802F10C0391
:1039A00053E8003F23F010030C3242E800310029B5
:1039B000F3D1ECE790F84130DBB2212B01D00220AB
:1039C00070478368B3F5805F17D0036A5A1C0262A0
:1039D0001A7803685A60C38C9BB2013B9BB2C384C4
:1039E0004BB90268D36823F08003D3600268D368C0
:1039F00043F04003D360002070470369002BE4D1FB
:103A0000036A1B880268C3F308035360036A023326
:103A10000362E0E738B504460268136923F44053B3
:103A2000C1680B43136183680269134342691343FE
:103A3000C2691A430168CB6823F4164323F00C03D0
:103A40001343CB600268536923F4407381690B43CD
:103A500053610368314A934206D002F58062934273
:103A600002D0FFF7A7FC01E0FFF7B4FCE369B3F570
:103A7000004F29D00021031849411B1841F10001D2
:103A8000C90041EA5371DB00181863684FEA8302EA
:103A90004FEA937341F10001FDF738F8204DA5FB83
:103AA00000325109642303FB11031B013233A5FBD0
:103AB00003235B0903F0F00202EB011203F00F0392
:103AC000216813448B6038BD0023021843EB0301C7
:103AD000121841F10001C90041EA5271D2001018D8
:103AE00041F10001626892185B41FDF70FF80C4D3F
:103AF000A5FB00325109642303FB1103DB003233C1
:103B0000A5FB03235B095A0002F4F87202EB0112D1
:103B100003F00703216813448B60D4E700100140D1
:103B20001F85EB512DE9F04383B005460E4617463D
:103B30009946DDF828802C68246836EA04030CBF17
:103B40004FF0010C4FF0000CBC4528D1B8F1FF3FFD
:103B5000F1D0FEF763FBA0EB0900404523D8B8F194
:103B6000000F22D02B68DA6812F0040FE3D0802E09
:103B7000E1D0402EDFD01A6812F0080FDBD000240D
:103B800001941A6801925B680193019B2846FFF734
:103B9000E3FE08236B6485F84040012000E000202C
:103BA00003B0BDE8F0830320FAE70320F8E760B331
:103BB00010B5044690F8413013B3242384F8413003
:103BC0002268D36823F40053D3602046FFF722FF16
:103BD0002268136923F4904313612268536923F028
:103BE0002A0353612268D36843F40053D360002052
:103BF0006064202384F8413084F84230606310BD53
:103C000080F84030FEF77CFAD7E7012070472DE9B5
:103C1000F04182B01E4690F84130DBB2202B56D1E5
:103C200004460D469046002955D00AB901204FE0C0
:103C300000234364212380F84130FEF7EFFA074662
:103C4000A4F82480A4F82680A368B3F5805F02D08E
:103C50004FF0000814E023692BB34FF000080FE089
:103C6000202384F84130032032E038F8023B2268F8
:103C7000C3F308035360E28C92B2013A92B2E28439
:103C8000E38C9BB293B100963B46002280212046F4
:103C9000FFF748FF0028E3D1002DE6D015F8012BEF
:103CA00023685A60E7E7A8460025E9E700963B4607
:103CB000002240212046FFF735FF18B9202384F861
:103CC000413005E0202384F84130032000E0022049
:103CD00002B0BDE8F0810120FAE72DE9F04182B0A1
:103CE0001E4690F84230DBB2202B59D104460D46D7
:103CF0009046002958D00AB9012052E000234364BD
:103D0000222280F842200363FEF788FA0746A4F8CF
:103D10002C80A4F82E80A368B3F5805F02D04FF00A
:103D200000081CE0236913B14FF0000817E0A84613
:103D3000002514E0202384F84230032031E023687A
:103D40005B68C3F3080328F8023B03E023685B6861
:103D50002B700135E28D92B2013A92B2E285E38D89
:103D60009BB2C3B100963B46002220212046FFF7BC
:103D7000D9FE0028DED1002DE1D0A368B3F5805F25
:103D8000E4D013B92369002BE0D023685B6803F00B
:103D90007F032B70DDE7202384F84230002000E011
:103DA000022002B0BDE8F0810120FAE7704708B5B3
:103DB0000168CA6822F04002CA60202280F84120CF
:103DC000FFF7F4FF002008BD704708B5806B0023A3
:103DD000C385C384FFF7F8FF08BD704790F84230F1
:103DE000DBB2222B69D18368B3F5805F4FD0826A42
:103DF000B3F5805F04D0002B56D10369002B53D15B
:103E000003685B681370836A01338362C38D9BB25E
:103E1000013B9BB2C385002B51D100B583B0026832
:103E2000D36823F02003D3600268D36823F480733F
:103E3000D3600268536923F001035361202380F8A3
:103E4000423000234363036B012B33D10023036310
:103E5000026802F10C0353E8003F23F010030C3218
:103E600042E800310029F3D103681A6812F0100FFC
:103E700006D0002201921A6801925B680193019BAF
:103E8000818DFFF7AAFF002003B05DF804FB0269F3
:103E9000002AACD1826A03685B68C3F3080313800D
:103EA000836A02338362B1E703685B6803F07F03D0
:103EB0001370A8E702F0D0FAE5E70220704700206F
:103EC0007047000030B583B0044602681368D068BC
:103ED000516913F00F0505D113F0200F02D010F037
:103EE000200F19D12DB111F0010119D110F4907FDB
:103EF00016D1216B01297DD013F0800F03D010F073
:103F0000800F40F0198113F0400F03D010F0400FE4
:103F100040F0168103B030BD2046FFF75FFFF9E7A0
:103F200013F0010F06D010F4807F03D0626C42F0D2
:103F30000102626413F0040F04D019B1626C42F004
:103F40000202626413F0020F04D019B1626C42F0F5
:103F50000402626413F0080F07D010F0200F00D1A4
:103F600019B1626C42F008026264626C002AD1D01E
:103F700013F0200F02D010F0200F29D123685B69C5
:103F800003F04003626C12F0080F00D163B32046C7
:103F9000FFF7E2FC23685B6913F0400F20D0226832
:103FA00002F1140353E8003F23F04003143242E8C7
:103FB00000310029F3D1E36B73B1634A1A65E06BFA
:103FC000FEF7C6FD0028A5D0E06B036D9847A1E77A
:103FD0002046FFF703FFD1E72046FFF7F5FE99E7FC
:103FE0002046FFF7F1FE95E72046FFF7EDFE0023A0
:103FF00063648FE713F0100F3FF47EAF10F0100FE3
:104000003FF47AAF0023019313680193536801933F
:10401000019B536913F0400F52D0E26B13685B6849
:104020009BB2002B3FF476AFA18D99427FF672AF21
:10403000E385D369B3F5807F37D0226802F10C03A2
:1040400053E8003F23F480730C3242E8003100292A
:10405000F3D1226802F1140353E8003F23F0010377
:10406000143242E800310029F3D1226802F114032E
:1040700053E8003F23F04003143242E800310029A6
:10408000F3D1202384F8423000232363226802F115
:104090000C0353E8003F23F010030C3242E80031D8
:1040A0000029F3D1E06BFEF709FD02236363A18DC4
:1040B000E38D9BB2C91A89B22046FFF78EFE29E72D
:1040C000A18DE38D9BB2C91A89B2E38D9BB2002BFF
:1040D0003FF420AF00293FF41DAF226802F10C032A
:1040E00053E8003F23F490730C3242E8003000287C
:1040F000F3D1226802F1140353E8003F23F00103D7
:10410000143242E800300028F3D1202384F84230F2
:1041100000232363226802F10C0353E8003F23F0DD
:1041200010030C3242E800300028F3D1022363630D
:104130002046FFF752FEEDE62046FFF73BFCE9E69E
:104140002046FFF734FEE5E6CB3D0008816282851C
:10415000C28500234364222380F84230036923B1DF
:104160000268D36843F48073D3600268536943F0F4
:10417000010353610268D36843F02003D360002039
:10418000704708B590F84230DBB2202B08D149B116
:104190000AB9012008BD00230363FFF7D7FFF9E741
:1041A0000220F7E70120F5E708B54FF0E0231B698F
:1041B00001F068FD012800D108BD00F0D3F9FBE74C
:1041C000EFF305832BB9064B186828B901221A6052
:1041D00070476FF0050070474FF0FF30704700BF29
:1041E00018130020EFF3058373B90A4B1B68012BEA
:1041F0000DD110B50024084BDC77064B02221A6063
:1042000001F090FA204610BD6FF0050070474FF0A6
:10421000FF3070471813002000ED00E0F0B587B0C4
:1042200000240594EFF305847CBB70B32AB31568B2
:10423000936903B918235C1E372C4AD8546814F0CC
:10424000010F48D1566976B14FEA960C946834B1A3
:10425000D768B7F5916F02D3176907B1C6B92CB10A
:104260004FF0FF340EE04FF0800CEFE7D4688CB9CC
:10427000146994B14FF0FF3404E01546002418236C
:104280004FF0800C012C0AD0ACB1059807B0F0BDFE
:104290000124F7E74FF0FF34F4E70024F2E7146954
:1042A00092680292019400930B466246294601F0FF
:1042B000C7F90590E9E705AA019200930B461FFA9A
:1042C0008CF2294601F0F9F90128DED0002305938C
:1042D000DBE70020DAE70020D8E708B5EFF3058335
:1042E00033B908B9002008BD01F088FB0020FAE7C7
:1042F0006FF00500F7E70000034B0360034B0B6012
:1043000080231360704700BF900E0020900C0020A7
:10431000034B0360034B0B604FF4807313607047D3
:10432000201700201C13002000F1080343604FF009
:10433000FF328260C3600361002303607047002383
:104340000361704743684B609A688A605160996066
:104350000861036801330360704730B40D68B5F13C
:10436000FF3F11D000F108031C465B681A68AA429F
:10437000FAD963684B6099608C606160086103687A
:104380000133036030BC70470469F2E70369416898
:1043900082688A60416851605A68824206D0002271
:1043A00002611A68013A1A601868704782685A6098
:1043B000F5E7000082B0002301930D4B1B68B3F1B9
:1043C000FF3F08D04FF0500383F31188BFF36F8F86
:1043D000BFF34F8FFEE74FF0500383F31188BFF315
:1043E0006F8FBFF34F8F019B002BFCD002B0704743
:1043F0001400002008480068006880F308884FF027
:10440000000080F3148862B661B6BFF34F8FBFF32C
:104410006F8F00DF00BF000008ED00E0DFF80C0048
:10442000016841F4700101607047000088ED00E010
:104430004FF0807340F8043C21F0010140F8081C63
:10444000054B40F80C3C40F8202C6FF0020340F87C
:10445000243C4438704700BFB5430008000000000A
:10446000074B19680868B0E8F04F80F30988BFF37C
:104470006F8F4FF0000080F311887047AFF300801A
:10448000105800204FF0500383F31188BFF36F8F53
:10449000BFF34F8F0B4A136801331360012B00D019
:1044A00070474FF0E023D3F8043D13F0FF0FF7D02F
:1044B0004FF0500383F31188BFF36F8FBFF34F8F1B
:1044C000FEE700BF14000020094B1B6843B94FF002
:1044D000500383F31188BFF36F8FBFF34F8FFEE755
:1044E000013B034A13600BB983F31188704700BF87
:1044F0001400002000000000000000000000000088
:10450000EFF30980BFF36F8F154B1A681EF0100F81
:1045100008BF20ED108A20E9F04F10602DE9090056
:104520004FF0500080F31188BFF34F8FBFF36F8FB0
:1045300001F08AFA4FF0000080F3118809BC196875
:104540000868B0E8F04F1EF0100F08BFB0EC108AFA
:1045500080F30988BFF36F8F704700BFAFF300800F
:104560001058002008B54FF0500383F31188BFF3B3
:104570006F8FBFF34F8F01F039F928B14FF0E0236F
:104580004FF08052C3F8042D002383F3118808BD37
:104590004FF0E022002313619361054B1B6805492E
:1045A000A1FB03139B09013B536107231361704770
:1045B00008000020D34D62104FF0E023D3F8002D07
:1045C0003D4B9A421CD04FF0E023D3F8002D3B4BDB
:1045D0009A421ED030B583B0394B1A78D2B20192CC
:1045E000FF221A701B78DBB28DF803309DF8033080
:1045F00003F05003334A1370334B07221A601BE059
:104600004FF0500383F31188BFF36F8FBFF34F8FC9
:10461000FEE74FF0500383F31188BFF36F8FBFF3B2
:104620004F8FFEE7284A1368013B13609DF8033063
:104630005B00DBB28DF803309DF8033013F0800F80
:10464000F0D1214B1B68032B08D04FF0500383F3AC
:104650001188BFF36F8FBFF34F8FFEE71B021A4A1B
:10466000136003F4E0631360019BDBB2144A137020
:104670004FF0E024D4F8203D43F47003C4F8203D0B
:10468000D4F8203D43F07043C4F8203DFFF780FF8D
:1046900000250E4B1D60FFF7C1FED4F8343F43F0F8
:1046A0004043C4F8343FFFF7A5FE01F0CDF9FFF712
:1046B00081FE284603B030BD71C20F4170C20F4168
:1046C00000E400E0A81B0020AC1B00201400002028
:1046D000EFF305830F2B0FD9114A9B5CDBB2114A14
:1046E00012789A4208D94FF0500383F31188BFF330
:1046F0006F8FBFF34F8FFEE74FF0E023D3F80C3DF1
:1047000003F4E063084A1268934208D94FF050035B
:1047100083F31188BFF36F8FBFF34F8FFEE77047AE
:10472000F0E300E0A81B0020AC1B0020124A12F0AE
:10473000070F1ED0D11D21F00701C1F5705313449E
:104740000A460E480260002141601344083B23F0F2
:1047500007030B48036059601960991A5160136090
:10476000084B1960084B1960084B4FF000421A6063
:1047700070474FF47053E4E7B41B0020C857002083
:10478000B01B0020BC570020B8570020B4570020B1
:10479000164B1A461B688342FBD3516802EB010C8F
:1047A000844509D0416800EB010C634509D00360E2
:1047B000904219D010607047406801445160104623
:1047C000F0E710B40A4C2468A3420BD05B6819448C
:1047D000416013681B680360904200D010605DF870
:1047E000044B70470460F7E7704700BFC8570020CC
:1047F000B01B002070B5054600F0EAFF364B1B6881
:10480000A3B1364B1B681D424ED135B1083515F0AA
:10481000070F02D025F007050835002D46D0304B94
:104820001B68AB4251D32F4A146804E0FFF77EFFA8
:10483000E7E722461C466368AB4202D22368002B9E
:10484000F7D1254B1B68A34241D016680836236870
:10485000136063685B1B102B10D9601910F0070FF1
:1048600008D04FF0500383F31188BFF36F8FBFF36D
:104870004F8FFEE743606560FFF78AFF6268184963
:104880000B689B1A0B60184909688B4201D21649C4
:104890000B60124B1B681343636000232360134AB1
:1048A00013680133136002E0002600E0002601F0E7
:1048B00029F816F0070F0CD04FF0500383F311883E
:1048C000BFF36F8FBFF34F8FFEE70026EFE70026A1
:1048D000EDE7304670BD00BFB01B0020B45700208C
:1048E000B8570020C8570020BC570020C0570020F0
:1048F000002834D038B50446A0F1080550F8043C2F
:10490000174A1268134208D14FF0500383F31188FD
:10491000BFF36F8FBFF34F8FFEE750F8081C41B114
:104920004FF0500383F31188BFF36F8FBFF34F8FA6
:10493000FEE723EA020340F8043C00F049FF54F884
:10494000041C084A13680B4413602846FFF720FF35
:10495000054A13680133136000F0D4FF38BD704777
:10496000B4570020B8570020C45700200346406ABF
:1049700018B11B6B1868C0F13800704710B50446B9
:10498000FFF780FDA26BE36B9A4204D00024FFF78F
:104990009BFD204610BD0124F9E710B50446FFF742
:1049A00071FDA36B23B90124FFF78EFD204610BDD6
:1049B0000024F9E770B504461546866B026C5AB9B7
:1049C00003681BB100200136A66370BD806801F04A
:1049D000B5F90023A360F6E76DB94068FCF718FA53
:1049E000226C636813446360A268934219D32368FE
:1049F00063602846E7E7C068FCF70AFA226C514278
:104A0000E3689B1AE3602268934202D2A3680B44D6
:104A1000E360022D01D00020D5E726B1013E002041
:104A2000D1E72846CFE70020CDE70346026C6AB104
:104A300010B50846D9681144D9609C68A14201D3D9
:104A40001968D960D968FCF7E3F910BD704738B52B
:104A50000546FFF717FD95F8454064B201E0013CBB
:104A600064B2002C0ADD6B6A43B105F1240001F049
:104A70006FF80028F3D001F0FFF8F0E7FF2385F886
:104A80004530FFF721FDFFF7FDFC95F8444064B287
:104A900001E0013C64B2002C0ADD2B6943B105F151
:104AA000100001F055F80028F3D001F0E5F8F0E728
:104AB000FF2385F84430FFF707FD38BD38B5E0B176
:104AC0000D460446FFF7DEFC2368E26B216C01FB18
:104AD0000230A0600020A0636360013A02FB013352
:104AE000E360FF2384F8443084F84530FDB923693E
:104AF00063B9FFF7E9FC012038BD4FF0500383F3A1
:104B00001188BFF36F8FBFF34F8FFEE704F11000E2
:104B100001F01EF80028ECD04FF0E0234FF0805257
:104B2000C3F8042DBFF34F8FBFF36F8FE1E704F19C
:104B30001000FFF7F9FB04F12400FFF7F5FBD8E7BD
:104B400038B51D46049C0B4649B92460E0632364D4
:104B500001212046FFF7B2FF84F84C5038BD226097
:104B6000F4E740B94FF0500383F31188BFF36F8F20
:104B7000BFF34F8FFEE710B584B01C46844653B197
:104B800092B189B94FF0500383F31188BFF36F8F4F
:104B9000BFF34F8FFEE74FF0500383F31188BFF34D
:104BA0006F8FBFF34F8FFEE76AB150230393039BD0
:104BB000502B13D04FF0500383F31188BFF36F8F46
:104BC000BFF34F8FFEE70029EFD04FF0500383F380
:104BD0001188BFF36F8FBFF34F8FFEE7039B012355
:104BE00084F8463000949DF818306046FFF7A8FF1F
:104BF000204604B010BD40B94FF0500383F3118834
:104C0000BFF36F8FBFF34F8FFEE7F0B583B00D4654
:104C10001446064601FB00F05030FFF7EBFD074657
:104C200050B1002380F846300090234600F1500236
:104C300029463046FFF784FF384603B0F0BDF0B593
:104C400085B0019288B10F461D460446B1B1022DD0
:104C500020D1E36B012B1DD04FF0500383F311885B
:104C6000BFF36F8FBFF34F8FFEE74FF0500383F317
:104C70001188BFF36F8FBFF34F8FFEE7036C002BDC
:104C8000E5D04FF0500383F31188BFF36F8FBFF36C
:104C90004F8FFEE700F0F6FF064658B9019B002B48
:104CA00048D04FF0500383F31188BFF36F8FBFF3E9
:104CB0004F8FFEE700263DE02A4639462046FFF7A3
:104CC00079FE636A7BB948B14FF0E0234FF0805220
:104CD000C3F8042DBFF34F8FBFF36F8FFFF7F4FBC3
:104CE000012005B0F0BD04F1240000F031FF0028E0
:104CF000F4D04FF0E0234FF08052C3F8042DBFF3FF
:104D00004F8FBFF36F8FE9E7FFF7DEFB0020E8E787
:104D100002A800F063FF012619E0002384F8443064
:104D200021E0002384F8453023E02046FFF78FFE82
:104D300000F0E8FDFFF7A6FBA26BE36B9A42BBD342
:104D4000022DB9D0019B002BDED0002EE0D0FFF762
:104D5000BBFB00F03DFDFFF795FB94F8442052B2F9
:104D6000B2F1FF3FD9D094F8452052B2B2F1FF3FE3
:104D7000D7D0FFF7A9FB01A902A800F03BFFD8B9E3
:104D80002046FFF7FBFD0028CFD0019904F1100069
:104D900000F0AAFE2046FFF75AFE00F0B3FD0028FF
:104DA000C8D14FF0E0234FF08052C3F8042DBFF379
:104DB0004F8FBFF36F8FBDE72046FFF748FE00F02F
:104DC000A1FD00208DE72DE9F84390B10F4616466E
:104DD0001C460546B1B1022C20D1EB6B012B1DD036
:104DE0004FF0500383F31188BFF36F8FBFF34F8FE2
:104DF000FEE74FF0500383F31188BFF36F8FBFF3CB
:104E00004F8FFEE7036C002BE5D04FF0500383F388
:104E10001188BFF36F8FBFF34F8FFEE7FFF758FC8A
:104E2000EFF311894FF0500383F31188BFF36F8FB5
:104E3000BFF34F8FAA6BEB6B9A4206D3022C04D0C0
:104E4000002089F31188BDE8F88395F845804FFA72
:104E500088F8AB6B224639462846FFF7ABFDB8F120
:104E6000FF3F06D008F101035BB285F84530012011
:104E7000E7E76B6A0BB90120E3E705F1240000F0D6
:104E800067FE18B126B101203060DAE70120D8E7CB
:104E90000120D6E768B170B50C460546036C8BB1AE
:104EA0004FF0500383F31188BFF36F8FBFF34F8F21
:104EB000FEE74FF0500383F31188BFF36F8FBFF30A
:104EC0004F8FFEE70368EBB1FFF702FCEFF31186AB
:104ED0004FF0500383F31188BFF36F8FBFF34F8FF1
:104EE000AA6BEB6B934226D995F845305BB2013241
:104EF000AA63B3F1FF3F11D001335BB285F84530AF
:104F0000012019E08368002BDED04FF0500383F3BB
:104F10001188BFF36F8FBFF34F8FFEE76B6A0BB93A
:104F2000012009E005F1240000F012FE38B144B17F
:104F30000120206000E0002086F3118870BD012070
:104F4000FAE70120F8E7F0B585B0019290B10F467D
:104F50000446C1B100F096FE064600BB019B002B43
:104F60005ED04FF0500383F31188BFF36F8FBFF310
:104F70004F8FFEE74FF0500383F31188BFF36F8F1D
:104F8000BFF34F8FFEE7036C002BE3D04FF05003CD
:104F900083F31188BFF36F8FBFF34F8FFEE70026B7
:104FA0003EE039462046FFF740FD013DA5632369F9
:104FB00023B9FFF789FA012005B0F0BD04F1100014
:104FC00000F0C6FD0028F4D04FF0E0234FF08052EF
:104FD000C3F8042DBFF34F8FBFF36F8FE9E7FFF7DF
:104FE00073FA0020E8E702A800F0F8FD012621E0AE
:104FF000002384F8443029E0002384F845302BE076
:105000002046FFF724FD00F07DFC09E02046FFF775
:105010001EFD00F077FC2046FFF7BFFC00283FD1C3
:10502000FFF730FAA56B002DBBD1019B002BD6D02A
:10503000002ED8D0FFF748FA00F0CAFBFFF722FA9B
:1050400094F844305BB2B3F1FF3FD1D094F84530CF
:105050005BB2B3F1FF3FCFD0FFF736FA01A902A848
:1050600000F0C8FD0028D1D12046FFF796FC0028AB
:10507000C6D0019904F1240000F036FD2046FFF768
:10508000E6FC00F03FFC0028CAD14FF0E0234FF0CF
:105090008052C3F8042DBFF34F8FBFF36F8FBFE76C
:1050A000002089E770B584B0019158B10446036CC3
:1050B0008BB14FF0500383F31188BFF36F8FBFF3B1
:1050C0004F8FFEE74FF0500383F31188BFF36F8FCC
:1050D000BFF34F8FFEE700F0D5FD054650B9019BA9
:1050E0005BB14FF0500383F31188BFF36F8FBFF3B1
:1050F0004F8FFEE70026354655E0064653E0013B5C
:10510000A36323683BB123694BB9FFF7DDF901269F
:10511000304604B070BD00F0A9FEA060F3E704F1D2
:10512000100000F015FD0028EFD04FF0E0234FF005
:105130008052C3F8042DBFF34F8FBFF36F8FE4E7A6
:1051400046B14FF0500383F31188BFF36F8FBFF365
:105150004F8FFEE7FFF7B8F9DAE702A800F03EFD4F
:1051600001252AE0002384F8443032E0002384F84B
:10517000453034E0FFF786F9A06800F093FD06465D
:10518000FFF7A2F93BE02046FFF761FC00F0BAFB15
:1051900009E02046FFF75BFC00F0B4FB2046FFF778
:1051A000FCFB002842D1FFF76DF9A36B002BA6D1C1
:1051B000019B002BC4D0002DCFD0FFF785F900F064
:1051C00007FBFFF75FF994F844305BB2B3F1FF3FA0
:1051D000C8D094F845305BB2B3F1FF3FC6D0FFF7BB
:1051E00073F901A902A800F005FD0028D1D12046DD
:1051F000FFF7D3FB0028C6D02368002BBAD0019953
:1052000004F1240000F070FC2046FFF720FC00F0C1
:1052100079FB0028C7D14FF0E0234FF08052C3F84C
:10522000042DBFF34F8FBFF36F8FBCE70EB900267D
:105230006EE7FFF727F92046FFF798FB0146A068C5
:1052400000F0C4FDFFF740F9F1E700000023072B51
:105250000CD8074A52F833200AB10133F7E7044A61
:1052600042F8331002EBC30358607047704700BF29
:10527000D057002070B504460D461646FFF702F9D8
:1052800094F844305BB2B3F1FF3F0DD094F8453051
:105290005BB2B3F1FF3F0BD0FFF716F9A36B5BB125
:1052A0002046FFF7D4FB70BD002384F84430EDE7BF
:1052B000002384F84530EFE73246294604F1240004
:1052C00000F02AFCECE70000084B1B681B6823B9C0
:1052D000074B4FF0FF321A607047044B1B68DB68C6
:1052E000DB685A68024B1A60704700BF14580020F0
:1052F000BC5C00202DE9F04780460D4617469946D4
:10530000089EDDF824A00A9C9200A521206B01F0E4
:10531000FDFA236B07F18042013A03EB820727F085
:105320000707002D65D04FF0000CBCF10F0F0BD814
:1053300015F80C2004EB0C0383F8342015F80C301E
:1053400013B10CF1010CF0E7002384F84330372E41
:1053500000D93726E662E66400252565201DFEF7A4
:10536000EEFF04F11800FEF7EAFF2461C6F13806EB
:10537000A6616462C4F8805484F884544FF4856252
:10538000294604F1580001F0C1FA04F55173E365B0
:1053900004F56B73236604F2144363660122002351
:1053A000C4E9402343F20E33A4F808314AF6CD3362
:1053B000A4F80A3141F23423A4F80C314EF26D63A3
:1053C000A4F80E314DF6EC63A4F810310523A4F8CF
:1053D00012310B23A4F814314A4641463846FFF7F0
:1053E00027F82060BAF1000F01D0CAF80040BDE8EC
:1053F000F087002384F83430A9E7000038B5002492
:1054000007E004EB840293000E481844FEF78CFF7B
:105410000134372CF5D90C4D2846FEF785FF0B4C8F
:105420002046FEF781FF0A48FEF77EFF0948FEF797
:105430007BFF0948FEF778FF084B1D60084B1C6096
:1054400038BD00BF1C580020905C0020A45C0020E8
:10545000C85C0020F45C0020E05C002014580020B0
:105460001858002010B50446FFF70CF8224A1368BC
:1054700001331360214B1B685BB1214B1B686BB977
:105480001E4B1B68DA6AE36A9A4207D81B4B1C6002
:1054900004E01A4B1C601368012B29D0194A1368C9
:1054A000013313606364E06A174B1B68984201D9AB
:1054B000154B186000EB8000211D144B03EB80009E
:1054C000FEF740FFFFF700F80D4B1B687BB10B4B5D
:1054D0001B68DA6AE36A9A4209D24FF0E0234FF080
:1054E0008052C3F8042DBFF34F8FBFF36F8F10BDF1
:1054F000FFF784FFD2E700BF7C5C0020105800203B
:10550000DC5C0020885C00208C5C00201C580020A3
:1055100010B50446583001F083FA94F8853463B12D
:10552000012B11D0022B0ED04FF0500383F31188C2
:10553000BFF36F8FBFF34F8FFEE7206BFFF7D8F9F4
:105540002046FFF7D5F910BD2046FFF7D1F9FAE75D
:105550000F4B1B68D3B110B5FEF794FF0D4BDB6802
:10556000DC68201DFEF712FF0B4A1368013B136035
:10557000074A1368013B1360FEF7A6FF2046FFF7BA
:10558000C7FF034B1B68002BE6D110BD704700BF5F
:10559000805C0020F45C00207C5C002008B5FFF7F4
:1055A000D7FF074B1B68012BF9D94FF0E0234FF0D1
:1055B0008052C3F8042DBFF34F8FBFF36F8FEEE718
:1055C0001C58002070B504460D46174B1E68174B3B
:1055D00018680430FEF7DAFEB4F1FF3F0DD0344412
:1055E000124B1B685C60A64210D9114B18680F4B18
:1055F00019680431FEF7B1FE70BD002DEFD00B4BE2
:10560000196804310B48FEF79DFEF5E70A4B186850
:10561000064B19680431FEF7A0FE084B1B68A34235
:10562000EAD9064B1C60E7E7085D0020105800200F
:1056300018580020E05C002014580020BC5C0020BA
:1056400030B587B00B9C8CB10C9DC5B14FF4916502
:105650000495049DB5F5916F1AD04FF0500383F374
:105660001188BFF36F8FBFF34F8FFEE74FF05003EA
:1056700083F31188BFF36F8FBFF34F8FFEE74FF0B7
:10568000500383F31188BFF36F8FBFF34F8FFEE793
:10569000049D0C9D2C63022485F88544002403940A
:1056A000029505AC01940A9C0094FFF723FE0C9828
:1056B000FFF7D8FE059807B030BD2DE9F04385B05F
:1056C0000746884614461E469000FFF793F808B335
:1056D00081464FF49160FFF78DF80546B0B1C0F8F0
:1056E0003090E5B1002385F88534039302950D9B36
:1056F00001930C9B00933346224641463846FFF700
:10570000F9FD2846FFF7AEFE012005E04846FFF709
:10571000EFF8E6E74FF0FF3005B0BDE8F0834FF05B
:10572000FF30F9E710B588B000240594069407AA65
:1057300006A905A8FEF7E0FD059B0293069B0193D1
:1057400000942346079A1A491A48FFF779FF1A4B23
:10575000186040B100F004FC012806D0B0F1FF3F12
:105760001DD008B010BD0020F6E74FF0500383F3C2
:105770001188BFF36F8FBFF34F8F104B1B685833E7
:105780000F4A13600F4B4FF0FF321A600E4B01228D
:105790001A600E4B00221A60FEF70EFFE1E74FF091
:1057A000500383F31188BFF36F8FBFF34F8FFEE772
:1057B00034E800089D550008B85C0020105800200F
:1057C00018000020BC5C0020DC5C0020085D00208C
:1057D000024A136801331360704700BF845C0020E5
:1057E000014B1868704700BF085D0020F8B53A4BC0
:1057F0001B68002B69D1394B1D6801351D60C5B987
:10580000374B1B681B6843B14FF0500383F311887B
:10581000BFF36F8FBFF34F8FFEE7314A1168314BF3
:10582000186810601960304A136801331360FFF77D
:105830004BFD2E4B1B68AB423DD900272C4B1B6800
:10584000DB6A03EB83039A002A4B9B58012B00D998
:105850000127294B1B68002B3CD001273AE0012788
:105860001F4B1B681B6843B31D4B1B68DB68DC6860
:1058700063689D4226D3261D3046FEF787FDA36A46
:105880001BB104F11800FEF781FDE36A1B4A1268A0
:10589000934201D9194A136003EB83039A003146FE
:1058A00014481044FEF74EFDE26A114B1B68DB6A98
:1058B0009A42D4D2D4E70027D2E70C4B4FF0FF3204
:1058C0001A60BBE7094A1360B8E70D4A1368013351
:1058D000136000273846F8BD845C0020085D002076
:1058E0001458002018580020C05C0020BC5C002028
:1058F000105800201C5800200C5D00208C5C0020FB
:10590000C45C002038B5354B1B6843B94FF05003D9
:1059100083F31188BFF36F8FBFF34F8FFEE7FEF75E
:10592000B1FD2E4B1A68013A1A601B68002B4FD14B
:105930002B4B1B680BB900244BE00024294B1B6840
:105940001BB3284BDB68DC6804F11800FEF71EFD72
:10595000251D2846FEF71AFDE06A234B1B68984276
:1059600001D9214B186000EB800029461F4B03EB47
:105970008000FEF7E7FCE26A1D4B1B68DB6A9A4277
:10598000DCD31C4B01221A60D8E70CB1FFF79CFC5A
:10599000194B1C6884B9174B1C68D4B14FF0E02335
:1059A0004FF08052C3F8042DBFF34F8FBFF36F8FBA
:1059B00001240EE0013C07D0FFF718FF0028F9D0C2
:1059C0000C4B01221A60F5E70B4B00221A60E2E74C
:1059D0000024FEF779FD204638BD00BF845C00201E
:1059E0007C5C0020C85C00208C5C00201C580020DF
:1059F000105800200C5D0020C45C002010B5A8B138
:105A00000446104B1B6843B14FF0500383F31188D9
:105A1000BFF36F8FBFF34F8FFEE7FFF7D9FE002173
:105A20002046FFF7CFFDFFF76DFF48B94FF0E023A9
:105A30004FF08052C3F8042DBFF34F8FBFF36F8F29
:105A400010BD00BF845C0020214B1B681BB1214BA3
:105A500001221A6070471F4B00221A601E4B1B6800
:105A600003EB83018A001D498A585AB90BB1013BE7
:105A7000F6E74FF0500383F31188BFF36F8FBFF346
:105A80004F8FFEE703EB830082000A4450684068B2
:105A9000506003EB830C4FEA8C02083211448842B9
:105AA0000FD003EB830291000C4A0A445268D1687C
:105AB0000B4A116008490B6013685833094A136098
:105AC0007047406862469100044A0A445060E8E723
:105AD000845C00200C5D00208C5C00201C580020A1
:105AE000105800201800002058B110B50C46094A83
:105AF00011681831FEF731FC01212046FFF762FDE5
:105B000010BD4FF0500383F31188BFF36F8FBFF3C5
